:020000040800F2
:1000000000000220A5020008AD020008B1020008AD
:10001000B5020008B9020008BD0200080000000097
:10002000000000000000000000000000C102000805
:10003000C502000800000000C9020008CD02000847
:10004000D1020008D1020008D1020008D102000844
:10005000D1020008D1020008D1020008D102000834
:10006000D1020008D1020008D1020008D102000824
:10007000D1020008D1020008D1020008D102000814
:10008000D1020008D1020008D1020008D102000804
:10009000D1020008D1020008D1020008D1020008F4
:1000A000D1020008D1020008D1020008D1020008E4
:1000B000D1020008D1020008D1020008D1020008D4
:1000C000D1020008D1020008D1020008D1020008C4
:1000D000D1020008D102000800000000000000006A
:1000E0000000000000000000D1020008D10200085A
:1000F000D1020008D1020008D1020008D102000894
:10010000D1020008D1020008D1020008D102000883
:10011000D1020008D1020008D1020008D102000873
:10012000D1020008D102000800000000D10200083E
:10013000D1020008D1020008000000000000000009
:100140000000000000000000D102000800000000D4
:10015000D1020008D1020008D1020008000000000E
:10016000000000000000000000000000D1020008B4
:10017000D1020008D1020008D1020008D102000813
:10018000000000000000000000000000000000006F
:100190000000000000000000D1020008D1020008A9
:1001A000D1020008D1020008D1020008D1020008E3
:1001B000D102000800000000000000000000000064
:1001C000000000000000000000000000000000002F
:1001D000D10200080000000000000000D102000869
:1001E000D102000800B583B000F01EFF224B234A65
:1001F000002101E0196004339342FBD3204B214AD4
:10020000214803E011681960043304328342F9D3B2
:1002100001F03AF901A8694600F0FAFE1B4B1C4DAB
:10022000ED1AAD1000241E4603E056F8243098471E
:100230000134A542F9DC174B174DED1AAD1000241F
:100240001E4603E056F8243098470134A542F9DCF5
:100250000198009901F020F90646104B104CE41A61
:10026000A4101D4603E0013C55F824309847002CAB
:10027000F9DC304600F0C6FE0C000020140000201F
:1002800000000020B41600080C000020D402000872
:10029000D4020008D4020008D4020008D4020008E6
:1002A000D402000808B5FFF79DFF00BFFEE700BFBE
:1002B000FEE700BFFEE700BFFEE700BFFEE700BFAE
:1002C000FEE700BFFEE700BFFEE700BFFEE700BF9E
:0402D000FEE700BF86
:1002D400704700BF10B5044600F076FE064BA3FB42
:1002E4000020800900F08AF84FF0FF3021460022F8
:1002F40000F042F8002010BDD34D621008B50B4B3E
:100304001A6842F400721A601A6842F480621A6031
:100314001A6842F480721A60032000F00FF80F206C
:10032400FFF7D8FFFFF7D4FF002008BD003C0240D0
:10033400014B1868704700BF0C00002010B504463C
:10034400C31E042B03D90A48A42100F067FE04F05D
:100354000704084BD86820F4E0600004000C40EA6D
:10036400042040F0BF6040F40030D86010BD00BFEE
:100374000815000800ED00E070B506460D46144669
:100384000F2A03D91A48BC2100F048FE0F2D03D9C7
:100394001748BD2100F042FE164BDB68C3F302236D
:1003A400C3F10701042928BF04211A1D062A01D913
:1003B400033B00E00023012202FA01F101390D4060
:1003C4009D4002FA03F3013B1C402C43002E06DA45
:1003D40006F00F062401E4B2074B9C5570BD2401BE
:1003E400E4B206F1604000F5614080F8004370BD5E
:1003F4000815000800ED00E014ED00E00138B0F14C
:10040400807F0AD2064B5860F021064A82F82310F6
:100414000020986007221A6070470120704700BFCF
:1004240010E000E000ED00E02DE9F84F07460D462E
:100434000B881BB9A648C32100F0F0FD6B68012BA3
:1004440022D9112B20D0022B1ED0122B1CD0A14A52
:10045400934219D002F58012934215D002F580120E
:10046400934211D0A2F5F81293420DD002F58012F6
:10047400934209D002F58012934205D0032B03D096
:100484009348C42100F0CAFDAB68022B03D99048FD
:10049400C52100F0C3FD002414E1A2460126A640B4
:1004A4002B6803EA0608B04540F00B816B68022B09
:1004B40001D0122B41D12B6973B3092B2CD05BB320
:1004C40053B34BB343B3012B26D025D0022B23D0F7
:1004D40022D021D0042B1FD01ED01DD0052B1BD021
:1004E4001AD019D0062B17D016D0052B14D0062BF2
:1004F40012D0072B10D00FD00ED0082B0CD00A2B03
:100504000AD0092B08D007D00C2B05D00F2B03D011
:100514006F48D62100F082FDE308083357F8231012
:1005240004F0070292000F20904021EA000029699C
:1005340001FA02F2024347F823203A684FEA4409D9
:100544004FF0030B0BFA09FB6FEA0B0B0BEA0202E9
:100554006B6803F0030303FA09F313433B606B680E
:100564005A1E012A03D9112B01D0122B19D1EB6881
:10057400032B03D95648E92100F050FDBA680BEA71
:100584000202EB6803FA09F31343BB607B6823EAB6
:1005940006066B68C3F3001303FA0AFA4AEA06066E
:1005A4007E60FB680BEA030BAB6803FA09F343EACA
:1005B4000B03FB606B6813F0805F00F08280464B96
:1005C4005A6C42F480425A64A308991C434A52F874
:1005D400210004F0030292000F21914020EA01015E
:1005E4003F48874237D000F58060874231D000F51C
:1005F400806087422BD000F58060874225D000F5CB
:10060400806087421FD000F58060874219D000F5D2
:100614008060874213D000F5806087420DD000F5DA
:100624008060874207D000F58060874201D10920AD
:1006340012E00A2010E008200EE007200CE006205B
:100644000AE0052008E0042006E0032004E002207C
:1006540002E0012000E0002000FA02F20A43023323
:100664001E4941F823201F4B1A686FEA080303EA66
:100674000201686810F4803F01D048EA0201194A77
:100684001160526803EA0201686810F4003F01D067
:1006940048EA0201134A5160926803EA0201686859
:1006A40010F4801F01D048EA02010E4A9160D2681A
:1006B4001340696811F4001F01D048EA0203094A93
:1006C400D36001340F2C7FF6E8AEBDE8F88F00BF8D
:1006D4003C150008000011100038024000380140A9
:1006E40000000240003C014070B5054614460E4629
:1006F40021B908484FF4D37100F090FC012C04D9BF
:10070400044840F2A71100F089FC0CB12E8370BD9F
:100714006E8370BD3C150008F8B5044603680F2BC2
:1007240003D9B148FD2100F079FC236813F0010FCF
:1007340061D06368012B06D9052B04D0AA484FF475
:10074400817100F06BFCA94B9B6803F00C03042B34
:100754000AD0A64B9B6803F00C03082B0ED1A34BC5
:100764005B6813F4800F09D0A04B1B6813F4003F9F
:1007740041D06368012B40F0FD813CE000229C4B9A
:100784001A70FFF7D5FD0746984D41F2883605E00B
:10079400FFF7CEFDC01BB04200F2EE812B6813F4CC
:1007A400003FF5D12279924B1A706368012B11D165
:1007B400FFF7BEFD07468D4D41F2883605E0FFF791
:1007C400B7FDC01BB04200F2D9812B6813F4003F7F
:1007D400F5D010E0FFF7ACFD0746844D41F28836B2
:1007E40005E0FFF7A5FDC01BB04200F2C9812B68EC
:1007F40013F4003FF5D1236813F0020F6CD0E368C3
:10080400012B04D978484FF4A17100F007FC236947
:100814001F2B04D9744840F2431100F0FFFB734BC3
:100824009B6813F00C0F0AD0704B9B6803F00C0309
:10083400082B1CD16D4B5B6813F4800F17D16B4BE5
:100844001B6813F0020F03D0E368012B40F09A8178
:10085400664B196821F0F8012269F82090FAA0F09B
:10086400B0FA80F0C0B282400A431A6034E0E36810
:1008740003B301225F4B1A60FFF75AFD06465B4D36
:1008840005E0FFF755FD801B642800F27D812B688D
:1008940013F0020FF5D0554B196821F0F8012269C5
:1008A400F82090FAA0F0B0FA80F0C0B282400A4377
:1008B4001A6011E000224F4B1A60FFF739FD06461B
:1008C4004A4D05E0FFF734FD801B642800F25E8189
:1008D4002B6813F0020FF5D1236813F0080F2ED004
:1008E4006369012B04D940484FF4C17100F096FBB1
:1008F400636993B10122404B1A60FFF719FD064664
:100904003A4D05E0FFF714FD801B642800F2408196
:100914006B6F13F0020FF5D011E00022364B1A6012
:10092400FFF706FD0646314D05E0FFF701FD801B8C
:10093400642800F22F816B6F13F0020FF5D1236846
:1009440013F0040F6FD0A368012B06D9052B04D034
:1009540025484FF4D67100F061FB244B1A6C42F029
:1009640080521A64A3F5E4331A6842F480721A6060
:10097400FFF7DEFC0646214D05E0FFF7D9FC801B9E
:10098400642800F209812B6813F4807FF5D00022DB
:100994001B4B1A70FFF7CCFC0746144D41F2883606
:1009A40005E0FFF7C5FCC01BB04200F2F7802B6FD7
:1009B40013F0020FF5D1227A114B1A70A368012BA0
:1009C40020D1FFF7B5FC0746084D41F2883605E013
:1009D400FFF7AEFCC01BB04200F2E2802B6F13F0B5
:1009E400020FF5D01FE000BF7C150008003802405C
:1009F4000238024000004742800E47420070004027
:100A040070380240FFF794FC07466C4D41F288367B
:100A140005E0FFF78DFCC01BB04200F2C3802B6FD2
:100A240013F0020FF5D1A369022B04D964484FF4E3
:100A3400F87100F0F3FAA369002B00F0B5805F4A67
:100A4400926802F00C02082A00F0B080022B7ED1DA
:100A5400E3693BB1B3F5800F04D0594840F2F91172
:100A640000F0DCFA236A3F2B04D955484FF4FD719A
:100A740000F0D4FA636AC03BF02B04D9504840F22A
:100A8400FB1100F0CBFAA36A022B0AD0042B08D086
:100A9400062B06D0082B04D049484FF4FE7100F011
:100AA400BDFAE36A043B0B2B04D9454840F2FD111F
:100AB40000F0B4FA0022434B1A60FFF739FC0646F3
:100AC4003E4D04E0FFF734FC801B642870D82B688B
:100AD40013F0007FF6D1236A626A47F6C07191FA77
:100AE400A1F1B1FA81F1C9B28A4043EA0201A36AD1
:100AF4005B085A1E4FF4403393FAA3F3B3FA83F31B
:100B0400DBB29A400A43E3691343E16A4FF070622F
:100B140092FAA2F2B2FA82F2D2B201FA02F21A43C1
:100B240042F00052254B5A600122264B1A60FFF70F
:100B3400FFFB0546214C04E0FFF7FAFB401B642849
:100B440038D8236813F0007FF6D00020F8BD0022C7
:100B54001C4B1A60FFF7ECFB0546184C04E0FFF74A
:100B6400E7FB401B642827D8236813F0007FF6D1E5
:100B74000020F8BD0120F8BD0320F8BD0320F8BD16
:100B84000320F8BD0120F8BD0320F8BD0320F8BD03
:100B94000320F8BD0320F8BD0320F8BD0320F8BDF1
:100BA4000320F8BD0320F8BD0020F8BD0120F8BDE6
:100BB4000320F8BD0320F8BD0320F8BD003802402F
:100BC4007C150008600047422DE9F04104460D46BB
:100BD4000368013B0E2B04D98B484FF4187100F0C5
:100BE4001DFA072D04D9884840F2612100F016FA55
:100BF400864B1B6803F00F03AB4280F08B80EAB294
:100C0400824B1A701B6803F00F03AB4240F054810F
:100C1400236813F0020F1DD0A368A3B1802B12D058
:100C2400902B10D0A02B0ED0B02B0CD0C02B0AD000
:100C3400D02B08D0E02B06D0F02B04D0724840F221
:100C4400772100F0EBF9724B996821F0F001A2686A
:100C54000A439A60236813F0010F00F0EA80636886
:100C6400022B04D9684840F27E2100F0D7F963686A
:100C7400012B05D1664A126812F4003F0ED11EE121
:100C8400022B05D1624A126812F0007F06D119E1E5
:100C94005F4A126812F0020F00F017815C4A9168F3
:100CA40021F003010B439360FFF742FB05466368A1
:100CB400012B0FD105E0FFF73BFB401BB84203D9E2
:100CC40006E1534E41F28837B36803F00C03042B5A
:100CD400F1D1AEE0022B15D105E0FFF729FB401B53
:100CE400B84203D9F7E04A4E41F28837B36803F0BB
:100CF4000C03082BF1D19CE0FFF71AFB401BB84210
:100D040003D9EBE0424E41F28837B36813F00C0F7D
:100D1400F2D18EE0236813F0020F1DD0A368A3B1B3
:100D2400802B12D0902B10D0A02B0ED0B02B0CD037
:100D3400C02B0AD0D02B08D0E02B06D0F02B04D047
:100D4400314840F2C62100F069F9314B996821F02D
:100D5400F001A2680A439A60236813F0010F60D07F
:100D64006368022B04D9284840F2CD2100F056F9DB
:100D74006368012B05D1264A126812F4003F0ED194
:100D8400AFE0022B05D1224A126812F0007F06D18F
:100D9400AAE01F4A126812F0020F00F0A8801C4A51
:100DA400916821F003010B439360FFF7C1FA0646F3
:100DB4006368012B0FD105E0FFF7BAFA801B4045A9
:100DC40003D997E0124F41F28838BB6803F00C0353
:100DD400042BF1D125E0022B1CD105E0FFF7A8FA82
:100DE400801B404503D988E0094F41F28838BB682D
:100DF40003F00C03082BF1D113E0FFF799FA801BE1
:100E040040450AD97CE000BF7C150008003C024044
:100E1400003802403D4F41F28838BB6813F00C0F94
:100E2400EBD1EAB23A4B1A701B6803F00F03AB42E2
:100E340069D1236813F0040F19D0E36883B1B3F5C3
:100E4400805F0DD0B3F5A05F0AD0B3F5C05F07D0C3
:100E5400B3F5E05F04D02F4840F21D3100F0DEF816
:100E64002A4B996821F4E051E2680A439A602368A6
:100E740013F0080F1AD0236983B1B3F5805F0DD046
:100E8400B3F5A05F0AD0B3F5C05F07D0B3F5E05F58
:100E940004D020484FF4497100F0C0F81B4B9A6805
:100EA40022F46042216942EAC1029A600F20FFF7EE
:100EB40011FA0020BDE8F0810120BDE8F081012095
:100EC400BDE8F0810120BDE8F0810120BDE8F0819A
:100ED4000320BDE8F0810320BDE8F0810320BDE8D4
:100EE400F0810120BDE8F0810120BDE8F0810120FE
:100EF400BDE8F0810320BDE8F0810320BDE8F08166
:100F04000320BDE8F0810120BDE8F08100380240F3
:100F1400003C02407C150008284B9B6803F00C033E
:100F2400042B49D0082B01D025487047234B58681F
:100F340000F03F005A6802F480024FF4800393FAF1
:100F4400A3F3B3FA83F3DBB232FA03F311D01D4BEC
:100F5400B3FBF0F0194B5A6847F6C0731A4093FA82
:100F6400A3F3B3FA83F3DBB222FA03F303FB00F037
:100F740010E0134BB3FBF0F0104B5A6847F6C07304
:100F84001A4093FAA3F3B3FA83F3DBB222FA03F31E
:100F940003FB00F0094B5A6802F440324FF440332B
:100FA40093FAA3F3B3FA83F3DBB222FA03F3013324
:100FB4005B00B0FBF3F07047024870470038024012
:100FC4000024F40000127A0008B5FFF7A5FF094BCE
:100FD4009A6802F0F002F02393FAA3F3B3FA83F3CE
:100FE400DBB222FA03F3044AD35CD840034B186003
:100FF40008BD00BF003802406C150008080000203E
:10100400FEE700BF08B50120FFF7FAFF01230360E4
:10101400014B0B60704700BF0000002008B5FFF7CC
:10102400F1FF00BF08B500F001F808BD0C4B1A68C9
:1010340042F001021A60002199601A6822F0847259
:1010440022F480321A60074A5A601A6822F4802215
:101054001A60D9604FF00062034B9A60704700BF7A
:10106400003802401030002400ED00E0144B5A69AF
:1010740000F001025A61134A526900F00202D2B22E
:101084005A615A6900F00402D2B25A610E4A516997
:1010940000F00801C9B25961516900F01001C9B2E8
:1010A4005961516900F02001C9B25961526900F0D7
:1010B4004002D2B25A615A6900F080005861704708
:1010C400000002400008024000040240F8B50D464A
:1010D400070AC6B20C4C204610210022FFF704FB7D
:1010E4003846FFF7C3FF3046FFF7C0FF2E0AEDB2C4
:1010F400204610210122FFF7F7FA3046FFF7B6FF2A
:101104002846FFF7B3FFF8BD000002402DE9F04187
:1011140006460D4690461F46134C204601210022E8
:10112400FFF7E2FAB6B250203146FFF7CFFF512065
:101134001FFA88F1FFF7CAFFADB252202946FFF724
:10114400C5FF5320B9B2FFF7C1FF20203146FFF796
:10115400BDFF21202946FFF7B9FF204601210A4699
:10116400FFF7C2FABDE8F0810004024038B50F4829
:1011740001210022FFF7B8FA00240D4D0BE0631C97
:10118400DBB235F814005C1CE4B235F81310FF2808
:1011940001D0FFF79BFF832CF1D900200146EF22F9
:1011A40040F23F13FFF7B2FF38BD00BF0004024016
:1011B400AC1500082DE9F0470F46040AC5B2714882
:1011C40001210022FFF790FA6F4E304610210022D1
:1011D400FFF78AFA0020FFF749FF2220FFF746FFB6
:1011E400304610210122FFF77FFA2046FFF73EFF29
:1011F4002846FFF73BFF013FC7F38F13AC4240F093
:10120400A48059E0D04602240026284621463246CE
:10121400FFF76AFA284621460122FFF765FA2846B5
:1012240021463246FFF760FA284621460122FFF79D
:101234005BFA284621463246FFF756FA28462146ED
:101244000122FFF751FA284621463246FFF74CFAAD
:10125400284621460122FFF747FA2846214632460E
:10126400FFF742FA284621460122FFF73DFA2846B5
:1012740021463246FFF738FA284621460122FFF775
:1012840033FA284621463246FFF72EFA28462146ED
:101294000122FFF729FA284621463246FFF724FAAD
:1012A400284621460122FFF71FFA08F1FF3313F005
:1012B400FF08AAD14B4602E04FF0100A324D03F169
:1012C400FF391FFA89F9002B9CD107F03F072E4DF7
:1012D4000224002614E0284621463246FFF704FA89
:1012E400284621460122FFF7FFF9284621463246C7
:1012F400FFF7FAF9284621460122FFF7F5F9474698
:101304007B1E5FFA83F8002FE5D133E04646204682
:10131400FFF7ACFE2846FFF7A9FE2046FFF7A6FE1E
:101324002846FFF7A3FE2046FFF7A0FE2846FFF756
:101334009DFE2046FFF79AFE2846FFF797FE731E90
:1013440013F0FF06E3D14B4601E04FF010085A1E9C
:101354001FFA82F9002BD9D107F03F0706E0204697
:10136400FFF784FE2846FFF781FE37467B1EDEB278
:10137400002FF4D1034801210A46FFF7B5F9BDE86F
:10138400F08700BF000402400000024010B504468C
:10139400094801210022FFF7A7F920200021FFF7C7
:1013A40095FE21200021FFF791FE20464FF496314F
:1013B400FFF700FF10BD00BF0004024070B50C46EB
:1013C4001E46151E28DD002926DBB1F5A07F23DA91
:1013D400EF2821DC43199BB25A1E92B212F4004F3B
:1013E4001AD1002801DA1DB2002013B2EF2B03DD5D
:1013F400C0F1F0052DB2EF22214612B22346FFF7C9
:1014040085FE30462946FFF7D5FE00200146EF222F
:1014140040F23F13FFF77AFE70BD00BF10B592B0E3
:10142400174B1A6C42F080521A64A3F5E4331A681D
:1014340042F440421A600123019302930224079468
:101444004FF480030893082309934FF4A8730A9375
:101454000B9407230C9301A8FFF75EF90F230D9358
:101464000E9400230F934FF4A05310934FF4805322
:1014740011930DA80521FFF7A7FB12B010BD00BF03
:101484000038024008B5FFF7D1FDFEF737FFFFF73C
:10149400C5FF08BD10B586B0164B1A6B42F00102A9
:1014A4001A631A6B42F002021A631A6B42F00402C6
:1014B4001A634FF6FF7401940123029302230493E9
:1014C40003930D4801A9FEF7AFFF0C4801A9FEF7ED
:1014D400ABFF0B4801A9FEF7A7FFFFF747FE00206B
:1014E400FFF754FF0020A021F0222346FFF766FFF8
:1014F400FEE700BF00380240000002400004024042
:10150400000802402E2E2F73797374656D2F737249
:10151400632F73746D333266342D68616C2F73746A
:101524006D3332663478785F68616C5F636F7274B0
:1015340065782E63000000002E2E2F737973746576
:101544006D2F7372632F73746D333266342D68613B
:101554006C2F73746D3332663478785F68616C5FB6
:101564006770696F2E63000000000000010203042D
:1015740001020304060708092E2E2F73797374657C
:101584006D2F7372632F73746D333266342D6861FB
:101594006C2F73746D3332663478785F68616C5F76
:1015A4007263632E63000000010000010200000763
:1015B4000300301008000203090000000A000800BC
:1015C4001000900711000500120000001300000035
:1015D4001000B0121100070012008C001300001755
:1015E4002900220030000000310005053200050208
:1015F40035000602360008043700000038000405F0
:10160400390006023C0006023D00080450000000B8
:101614005100EF005200000053003F01600000A79A
:101624006100010090003300070033010100000154
:101634000200000703003010080002030900000044
:101644000A000800100090071100050012000000B5
:10165400130000001000B0121100070012008C00EB
:101664001300001729002200300000003100050596
:101674003200050235000602360008043700000077
:1016840038000405390006023C0006023D00080447
:10169400500000005100EF005200000053003F01D1
:1016A400600000A7610001009000330007003301CF
:0C16B40010000020000000000024F400E2
:04000005080001E509
:00000001FF
